{
  "transactions": [
    {
      "hash": "0x1484d6c340f15e4f07fa8a21fe2eb7fab9ef979f5d84412791c69e2c0dd8e439",
      "transactionType": "CREATE",
      "contractName": "TestToken",
      "contractAddress": "0x5fbdb2315678afecb367f032d93f642f64180aa3",
      "function": null,
      "arguments": [
        "1000000"
      ],
      "transaction": {
        "from": "0xf39fd6e51aad88f6f4ce6ab8827279cfffb92266",
        "gas": "0x128c87",
        "value": "0x0",
        "input": "0x60806040526040518060400160405280600a81526020017f5465737420546f6b656e000000000000000000000000000000000000000000008152505f908161004791906103ef565b506040518060400160405280600481526020017f54455354000000000000000000000000000000000000000000000000000000008152506001908161008c91906103ef565b50601260025f6101000a81548160ff021916908360ff1602179055503480156100b3575f5ffd5b506040516114a03803806114a083398181016040528101906100d591906104ec565b60025f9054906101000a900460ff16600a6100f0919061067f565b816100fb91906106c9565b60038190555060035460045f3373ffffffffffffffffffffffffffffffffffffffff1673ffffffffffffffffffffffffffffffffffffffff1681526020019081526020015f20819055503373ffffffffffffffffffffffffffffffffffffffff165f73ffffffffffffffffffffffffffffffffffffffff167fddf252ad1be2c89b69c2b068fc378daa952ba7f163c4a11628f55a4df523b3ef6003546040516101a49190610719565b60405180910390a350610732565b5f81519050919050565b7f4e487b71000000000000000000000000000000000000000000000000000000005f52604160045260245ffd5b7f4e487b71000000000000000000000000000000000000000000000000000000005f52602260045260245ffd5b5f600282049050600182168061022d57607f821691505b6020821081036102405761023f6101e9565b5b50919050565b5f819050815f5260205f209050919050565b5f6020601f8301049050919050565b5f82821b905092915050565b5f600883026102a27fffffffffffffffffffffffffffffffffffffffffffffffffffffffffffffffff82610267565b6102ac8683610267565b95508019841693508086168417925050509392505050565b5f819050919050565b5f819050919050565b5f6102f06102eb6102e6846102c4565b6102cd565b6102c4565b9050919050565b5f819050919050565b610309836102d6565b61031d610315826102f7565b848454610273565b825550505050565b5f5f905090565b610334610325565b61033f818484610300565b505050565b5b81811015610362576103575f8261032c565b600181019050610345565b5050565b601f8211156103a75761037881610246565b61038184610258565b81016020851015610390578190505b6103a461039c85610258565b830182610344565b50505b505050565b5f82821c905092915050565b5f6103c75f19846008026103ac565b1980831691505092915050565b5f6103df83836103b8565b9150826002028217905092915050565b6103f8826101b2565b67ffffffffffffffff811115610411576104106101bc565b5b61041b8254610216565b610426828285610366565b5f60209050601f831160018114610457575f8415610445578287015190505b61044f85826103d4565b8655506104b6565b601f19841661046586610246565b5f5b8281101561048c57848901518255600182019150602085019450602081019050610467565b868310156104a957848901516104a5601f8916826103b8565b8355505b6001600288020188555050505b505050505050565b5f5ffd5b6104cb816102c4565b81146104d5575f5ffd5b50565b5f815190506104e6816104c2565b92915050565b5f60208284031215610501576105006104be565b5b5f61050e848285016104d8565b91505092915050565b7f4e487b71000000000000000000000000000000000000000000000000000000005f52601160045260245ffd5b5f8160011c9050919050565b5f5f8291508390505b60018511156105995780860481111561057557610574610517565b5b60018516156105845780820291505b808102905061059285610544565b9450610559565b94509492505050565b5f826105b1576001905061066c565b816105be575f905061066c565b81600181146105d457600281146105de5761060d565b600191505061066c565b60ff8411156105f0576105ef610517565b5b8360020a91508482111561060757610606610517565b5b5061066c565b5060208310610133831016604e8410600b84101617156106425782820a90508381111561063d5761063c610517565b5b61066c565b61064f8484846001610550565b9250905081840481111561066657610665610517565b5b81810290505b9392505050565b5f60ff82169050919050565b5f610689826102c4565b915061069483610673565b92506106c17fffffffffffffffffffffffffffffffffffffffffffffffffffffffffffffffff84846105a2565b905092915050565b5f6106d3826102c4565b91506106de836102c4565b92508282026106ec816102c4565b9150828204841483151761070357610702610517565b5b5092915050565b610713816102c4565b82525050565b5f60208201905061072c5f83018461070a565b92915050565b610d618061073f5f395ff3fe608060405234801561000f575f5ffd5b5060043610610091575f3560e01c8063313ce56711610064578063313ce5671461013157806370a082311461014f57806395d89b411461017f578063a9059cbb1461019d578063dd62ed3e146101cd57610091565b806306fdde0314610095578063095ea7b3146100b357806318160ddd146100e357806323b872dd14610101575b5f5ffd5b61009d6101fd565b6040516100aa9190610934565b60405180910390f35b6100cd60048036038101906100c891906109e5565b610288565b6040516100da9190610a3d565b60405180910390f35b6100eb610375565b6040516100f89190610a65565b60405180910390f35b61011b60048036038101906101169190610a7e565b61037b565b6040516101289190610a3d565b60405180910390f35b61013961065b565b6040516101469190610ae9565b60405180910390f35b61016960048036038101906101649190610b02565b61066d565b6040516101769190610a65565b60405180910390f35b610187610682565b6040516101949190610934565b60405180910390f35b6101b760048036038101906101b291906109e5565b61070e565b6040516101c49190610a3d565b60405180910390f35b6101e760048036038101906101e29190610b2d565b6108a4565b6040516101f49190610a65565b60405180910390f35b5f805461020990610b98565b80601f016020809104026020016040519081016040528092919081815260200182805461023590610b98565b80156102805780601f1061025757610100808354040283529160200191610280565b820191905f5260205f20905b81548152906001019060200180831161026357829003601f168201915b505050505081565b5f8160055f3373ffffffffffffffffffffffffffffffffffffffff1673ffffffffffffffffffffffffffffffffffffffff1681526020019081526020015f205f8573ffffffffffffffffffffffffffffffffffffffff1673ffffffffffffffffffffffffffffffffffffffff1681526020019081526020015f20819055508273ffffffffffffffffffffffffffffffffffffffff163373ffffffffffffffffffffffffffffffffffffffff167f8c5be1e5ebec7d5bd14f71427d1e84f3dd0314c0f7b2291e5b200ac8c7c3b925846040516103639190610a65565b60405180910390a36001905092915050565b60035481565b5f8160045f8673ffffffffffffffffffffffffffffffffffffffff1673ffffffffffffffffffffffffffffffffffffffff1681526020019081526020015f205410156103fc576040517f08c379a00000000000000000000000000000000000000000000000000000000081526004016103f390610c12565b60405180910390fd5b8160055f8673ffffffffffffffffffffffffffffffffffffffff1673ffffffffffffffffffffffffffffffffffffffff1681526020019081526020015f205f3373ffffffffffffffffffffffffffffffffffffffff1673ffffffffffffffffffffffffffffffffffffffff1681526020019081526020015f205410156104b7576040517f08c379a00000000000000000000000000000000000000000000000000000000081526004016104ae90610c7a565b60405180910390fd5b8160045f8673ffffffffffffffffffffffffffffffffffffffff1673ffffffffffffffffffffffffffffffffffffffff1681526020019081526020015f205f8282546105039190610cc5565b925050819055508160045f8573ffffffffffffffffffffffffffffffffffffffff1673ffffffffffffffffffffffffffffffffffffffff1681526020019081526020015f205f8282546105569190610cf8565b925050819055508160055f8673ffffffffffffffffffffffffffffffffffffffff1673ffffffffffffffffffffffffffffffffffffffff1681526020019081526020015f205f3373ffffffffffffffffffffffffffffffffffffffff1673ffffffffffffffffffffffffffffffffffffffff1681526020019081526020015f205f8282546105e49190610cc5565b925050819055508273ffffffffffffffffffffffffffffffffffffffff168473ffffffffffffffffffffffffffffffffffffffff167fddf252ad1be2c89b69c2b068fc378daa952ba7f163c4a11628f55a4df523b3ef846040516106489190610a65565b60405180910390a3600190509392505050565b60025f9054906101000a900460ff1681565b6004602052805f5260405f205f915090505481565b6001805461068f90610b98565b80601f01602080910402602001604051908101604052809291908181526020018280546106bb90610b98565b80156107065780601f106106dd57610100808354040283529160200191610706565b820191905f5260205f20905b8154815290600101906020018083116106e957829003601f168201915b505050505081565b5f8160045f3373ffffffffffffffffffffffffffffffffffffffff1673ffffffffffffffffffffffffffffffffffffffff1681526020019081526020015f2054101561078f576040517f08c379a000000000000000000000000000000000000000000000000000000000815260040161078690610c12565b60405180910390fd5b8160045f3373ffffffffffffffffffffffffffffffffffffffff1673ffffffffffffffffffffffffffffffffffffffff1681526020019081526020015f205f8282546107db9190610cc5565b925050819055508160045f8573ffffffffffffffffffffffffffffffffffffffff1673ffffffffffffffffffffffffffffffffffffffff1681526020019081526020015f205f82825461082e9190610cf8565b925050819055508273ffffffffffffffffffffffffffffffffffffffff163373ffffffffffffffffffffffffffffffffffffffff167fddf252ad1be2c89b69c2b068fc378daa952ba7f163c4a11628f55a4df523b3ef846040516108929190610a65565b60405180910390a36001905092915050565b6005602052815f5260405f20602052805f5260405f205f91509150505481565b5f81519050919050565b5f82825260208201905092915050565b8281835e5f83830152505050565b5f601f19601f8301169050919050565b5f610906826108c4565b61091081856108ce565b93506109208185602086016108de565b610929816108ec565b840191505092915050565b5f6020820190508181035f83015261094c81846108fc565b905092915050565b5f5ffd5b5f73ffffffffffffffffffffffffffffffffffffffff82169050919050565b5f61098182610958565b9050919050565b61099181610977565b811461099b575f5ffd5b50565b5f813590506109ac81610988565b92915050565b5f819050919050565b6109c4816109b2565b81146109ce575f5ffd5b50565b5f813590506109df816109bb565b92915050565b5f5f604083850312156109fb576109fa610954565b5b5f610a088582860161099e565b9250506020610a19858286016109d1565b9150509250929050565b5f8115159050919050565b610a3781610a23565b82525050565b5f602082019050610a505f830184610a2e565b92915050565b610a5f816109b2565b82525050565b5f602082019050610a785f830184610a56565b92915050565b5f5f5f60608486031215610a9557610a94610954565b5b5f610aa28682870161099e565b9350506020610ab38682870161099e565b9250506040610ac4868287016109d1565b9150509250925092565b5f60ff82169050919050565b610ae381610ace565b82525050565b5f602082019050610afc5f830184610ada565b92915050565b5f60208284031215610b1757610b16610954565b5b5f610b248482850161099e565b91505092915050565b5f5f60408385031215610b4357610b42610954565b5b5f610b508582860161099e565b9250506020610b618582860161099e565b9150509250929050565b7f4e487b71000000000000000000000000000000000000000000000000000000005f52602260045260245ffd5b5f6002820490506001821680610baf57607f821691505b602082108103610bc257610bc1610b6b565b5b50919050565b7f496e73756666696369656e742062616c616e63650000000000000000000000005f82015250565b5f610bfc6014836108ce565b9150610c0782610bc8565b602082019050919050565b5f6020820190508181035f830152610c2981610bf0565b9050919050565b7f496e73756666696369656e7420616c6c6f77616e6365000000000000000000005f82015250565b5f610c646016836108ce565b9150610c6f82610c30565b602082019050919050565b5f6020820190508181035f830152610c9181610c58565b9050919050565b7f4e487b71000000000000000000000000000000000000000000000000000000005f52601160045260245ffd5b5f610ccf826109b2565b9150610cda836109b2565b9250828203905081811115610cf257610cf1610c98565b5b92915050565b5f610d02826109b2565b9150610d0d836109b2565b9250828201905080821115610d2557610d24610c98565b5b9291505056fea2646970667358221220a64ca1634a9c2d283ba7aeb00aa938402c01667460c3133a7fb6852b5add995864736f6c634300081e003300000000000000000000000000000000000000000000000000000000000f4240",
        "nonce": "0x0",
        "chainId": "0x7a69"
      },
      "additionalContracts": [],
      "isFixedGasLimit": false
    },
    {
      "hash": "0xd678e601e6ee3ec579be7197cdc5c28ca25e5dfd56c589909d38375c600e0f1b",
      "transactionType": "CALL",
      "contractName": "TestToken",
      "contractAddress": "0x5fbdb2315678afecb367f032d93f642f64180aa3",
      "function": "transfer(address,uint256)",
      "arguments": [
        "0x70997970C51812dc3A010C7d01b50e0d17dc79C8",
        "10000000000000000000000"
      ],
      "transaction": {
        "from": "0xf39fd6e51aad88f6f4ce6ab8827279cfffb92266",
        "to": "0x5fbdb2315678afecb367f032d93f642f64180aa3",
        "gas": "0x11ab5",
        "value": "0x0",
        "input": "0xa9059cbb00000000000000000000000070997970c51812dc3a010c7d01b50e0d17dc79c800000000000000000000000000000000000000000000021e19e0c9bab2400000",
        "nonce": "0x1",
        "chainId": "0x7a69"
      },
      "additionalContracts": [],
      "isFixedGasLimit": false
    },
    {
      "hash": "0x8f0746502655938682d8ca7cf9ee5861753cbdd9a82bc38ea647c222d9e81c95",
      "transactionType": "CALL",
      "contractName": "TestToken",
      "contractAddress": "0x5fbdb2315678afecb367f032d93f642f64180aa3",
      "function": "transfer(address,uint256)",
      "arguments": [
        "0x3C44CdDdB6a900fa2b585dd299e03d12FA4293BC",
        "15000000000000000000000"
      ],
      "transaction": {
        "from": "0xf39fd6e51aad88f6f4ce6ab8827279cfffb92266",
        "to": "0x5fbdb2315678afecb367f032d93f642f64180aa3",
        "gas": "0x12b46",
        "value": "0x0",
        "input": "0xa9059cbb0000000000000000000000003c44cdddb6a900fa2b585dd299e03d12fa4293bc00000000000000000000000000000000000000000000032d26d12e980b600000",
        "nonce": "0x2",
        "chainId": "0x7a69"
      },
      "additionalContracts": [],
      "isFixedGasLimit": false
    },
    {
      "hash": "0x29d1c22bff32540304a89a7861a1e0e9fd5e90cca4ef55b270a37aaa5bb9df66",
      "transactionType": "CALL",
      "contractName": "TestToken",
      "contractAddress": "0x5fbdb2315678afecb367f032d93f642f64180aa3",
      "function": "transfer(address,uint256)",
      "arguments": [
        "0x3C44CdDdB6a900fa2b585dd299e03d12FA4293BC",
        "5000000000000000000000"
      ],
      "transaction": {
        "from": "0x70997970c51812dc3a010c7d01b50e0d17dc79c8",
        "to": "0x5fbdb2315678afecb367f032d93f642f64180aa3",
        "gas": "0xbe62",
        "value": "0x0",
        "input": "0xa9059cbb0000000000000000000000003c44cdddb6a900fa2b585dd299e03d12fa4293bc00000000000000000000000000000000000000000000010f0cf064dd59200000",
        "nonce": "0x0",
        "chainId": "0x7a69"
      },
      "additionalContracts": [],
      "isFixedGasLimit": false
    },
    {
      "hash": "0x1748a42d3b6438e6676d82e57048f84894671b761a9c70ca2cbbeffdbf028257",
      "transactionType": "CALL",
      "contractName": "TestToken",
      "contractAddress": "0x5fbdb2315678afecb367f032d93f642f64180aa3",
      "function": "transfer(address,uint256)",
      "arguments": [
        "0x70997970C51812dc3A010C7d01b50e0d17dc79C8",
        "2000000000000000000000"
      ],
      "transaction": {
        "from": "0x3c44cdddb6a900fa2b585dd299e03d12fa4293bc",
        "to": "0x5fbdb2315678afecb367f032d93f642f64180aa3",
        "gas": "0xbe62",
        "value": "0x0",
        "input": "0xa9059cbb00000000000000000000000070997970c51812dc3a010c7d01b50e0d17dc79c800000000000000000000000000000000000000000000006c6b935b8bbd400000",
        "nonce": "0x0",
        "chainId": "0x7a69"
      },
      "additionalContracts": [],
      "isFixedGasLimit": false
    },
    {
      "hash": "0x39947b9326c5ce33c9146f7566cea768b3ca7af0461a67d192c8fcd1b0963a2b",
      "transactionType": "CALL",
      "contractName": "TestToken",
      "contractAddress": "0x5fbdb2315678afecb367f032d93f642f64180aa3",
      "function": "transfer(address,uint256)",
      "arguments": [
        "0x90F79bf6EB2c4f870365E785982E1f101E93b906",
        "8000000000000000000000"
      ],
      "transaction": {
        "from": "0xf39fd6e51aad88f6f4ce6ab8827279cfffb92266",
        "to": "0x5fbdb2315678afecb367f032d93f642f64180aa3",
        "gas": "0x12b46",
        "value": "0x0",
        "input": "0xa9059cbb00000000000000000000000090f79bf6eb2c4f870365e785982e1f101e93b9060000000000000000000000000000000000000000000001b1ae4d6e2ef5000000",
        "nonce": "0x3",
        "chainId": "0x7a69"
      },
      "additionalContracts": [],
      "isFixedGasLimit": false
    }
  ],
  "receipts": [
    {
      "status": "0x1",
      "cumulativeGasUsed": "0xe44b7",
      "logs": [
        {
          "address": "0x5fbdb2315678afecb367f032d93f642f64180aa3",
          "topics": [
            "0xddf252ad1be2c89b69c2b068fc378daa952ba7f163c4a11628f55a4df523b3ef",
            "0x0000000000000000000000000000000000000000000000000000000000000000",
            "0x000000000000000000000000f39fd6e51aad88f6f4ce6ab8827279cfffb92266"
          ],
          "data": "0x00000000000000000000000000000000000000000000d3c21bcecceda1000000",
          "blockHash": "0x6c12bd12ce82b30680a5ca4e0b3a99c2b950e6975235c3a1d873a17884e1d2ac",
          "blockNumber": "0x1",
          "blockTimestamp": "0x690ec666",
          "transactionHash": "0x1484d6c340f15e4f07fa8a21fe2eb7fab9ef979f5d84412791c69e2c0dd8e439",
          "transactionIndex": "0x0",
          "logIndex": "0x0",
          "removed": false
        }
      ],
      "logsBloom": "0x00000000000000000000000000000000000000000000000000000000000000000000000000000000000000000000000000000000000000000000000000000000000000000000000000000008000000000000000000000000000000000000000000000040020000000000000100000800000000000000000000000010000000000000000000000000000000000000000000000000000000000000000200000000000000000000000000000000000000000000000000000000000000000000000000000042000000200000000000000000000000002000000000000000000020000000000000000000000000000000000000000000000000000000000000000000",
      "type": "0x2",
      "transactionHash": "0x1484d6c340f15e4f07fa8a21fe2eb7fab9ef979f5d84412791c69e2c0dd8e439",
      "transactionIndex": "0x0",
      "blockHash": "0x6c12bd12ce82b30680a5ca4e0b3a99c2b950e6975235c3a1d873a17884e1d2ac",
      "blockNumber": "0x1",
      "gasUsed": "0xe44b7",
      "effectiveGasPrice": "0x3b9aca01",
      "blobGasPrice": "0x1",
      "from": "0xf39fd6e51aad88f6f4ce6ab8827279cfffb92266",
      "to": null,
      "contractAddress": "0x5fbdb2315678afecb367f032d93f642f64180aa3"
    },
    {
      "status": "0x1",
      "cumulativeGasUsed": "0xccae",
      "logs": [
        {
          "address": "0x5fbdb2315678afecb367f032d93f642f64180aa3",
          "topics": [
            "0xddf252ad1be2c89b69c2b068fc378daa952ba7f163c4a11628f55a4df523b3ef",
            "0x000000000000000000000000f39fd6e51aad88f6f4ce6ab8827279cfffb92266",
            "0x00000000000000000000000070997970c51812dc3a010c7d01b50e0d17dc79c8"
          ],
          "data": "0x00000000000000000000000000000000000000000000021e19e0c9bab2400000",
          "blockHash": "0xd1a2e22e269d86ef36edd76766b183e109bdd02e5aaa6cc4c15c08da6ee0894b",
          "blockNumber": "0x2",
          "blockTimestamp": "0x690ec666",
          "transactionHash": "0xd678e601e6ee3ec579be7197cdc5c28ca25e5dfd56c589909d38375c600e0f1b",
          "transactionIndex": "0x0",
          "logIndex": "0x0",
          "removed": false
        }
      ],
      "logsBloom": "0x00000000000000000002000000000000000000000000000000000000000000000000000000000000000000000000000000000000000000000000000000000000000000000000000000000008000000000000000000000000000000000000000000000840000000000000000100000000000000000000000000000010000000000000000000000000000000000000000000000000000000000000000200000000000000000000000000000000000000000000000000000000000000000000000000000042000000200000000000000000000000002000000000000000000000000000000000000000000000000000000001000000000000000000000000000000",
      "type": "0x2",
      "transactionHash": "0xd678e601e6ee3ec579be7197cdc5c28ca25e5dfd56c589909d38375c600e0f1b",
      "transactionIndex": "0x0",
      "blockHash": "0xd1a2e22e269d86ef36edd76766b183e109bdd02e5aaa6cc4c15c08da6ee0894b",
      "blockNumber": "0x2",
      "gasUsed": "0xccae",
      "effectiveGasPrice": "0x349e580c",
      "blobGasPrice": "0x1",
      "from": "0xf39fd6e51aad88f6f4ce6ab8827279cfffb92266",
      "to": "0x5fbdb2315678afecb367f032d93f642f64180aa3",
      "contractAddress": null
    },
    {
      "status": "0x1",
      "cumulativeGasUsed": "0xcca2",
      "logs": [
        {
          "address": "0x5fbdb2315678afecb367f032d93f642f64180aa3",
          "topics": [
            "0xddf252ad1be2c89b69c2b068fc378daa952ba7f163c4a11628f55a4df523b3ef",
            "0x000000000000000000000000f39fd6e51aad88f6f4ce6ab8827279cfffb92266",
            "0x0000000000000000000000003c44cdddb6a900fa2b585dd299e03d12fa4293bc"
          ],
          "data": "0x00000000000000000000000000000000000000000000032d26d12e980b600000",
          "blockHash": "0x72b72f72078934e0e6326eb24785fad12c3e9a87c4502c12c8c7804302ea99f5",
          "blockNumber": "0x3",
          "blockTimestamp": "0x690ec666",
          "transactionHash": "0x8f0746502655938682d8ca7cf9ee5861753cbdd9a82bc38ea647c222d9e81c95",
          "transactionIndex": "0x0",
          "logIndex": "0x0",
          "removed": false
        }
      ],
      "logsBloom": "0x00000000000000000000000000000000000000000000000000000000000000000000000000000000000000000000000000000000000000000000000000100000000000000000000000000008000000000000000000000000000000000000000000000040000000000000000100000000000800000000000000000010000000000000000000000000000000000000000000000000000000000000000200000000000000000000200000000000000000000000000000000000000000000000000000000042000000200000000000000000000000002000000000000000000000000000000000000000000000000000000000000000000000000000000000000000",
      "type": "0x2",
      "transactionHash": "0x8f0746502655938682d8ca7cf9ee5861753cbdd9a82bc38ea647c222d9e81c95",
      "transactionIndex": "0x0",
      "blockHash": "0x72b72f72078934e0e6326eb24785fad12c3e9a87c4502c12c8c7804302ea99f5",
      "blockNumber": "0x3",
      "gasUsed": "0xcca2",
      "effectiveGasPrice": "0x2e106eca",
      "blobGasPrice": "0x1",
      "from": "0xf39fd6e51aad88f6f4ce6ab8827279cfffb92266",
      "to": "0x5fbdb2315678afecb367f032d93f642f64180aa3",
      "contractAddress": null
    },
    {
      "status": "0x1",
      "cumulativeGasUsed": "0x89d6",
      "logs": [
        {
          "address": "0x5fbdb2315678afecb367f032d93f642f64180aa3",
          "topics": [
            "0xddf252ad1be2c89b69c2b068fc378daa952ba7f163c4a11628f55a4df523b3ef",
            "0x00000000000000000000000070997970c51812dc3a010c7d01b50e0d17dc79c8",
            "0x0000000000000000000000003c44cdddb6a900fa2b585dd299e03d12fa4293bc"
          ],
          "data": "0x00000000000000000000000000000000000000000000010f0cf064dd59200000",
          "blockHash": "0xfe2410f97fc2551226c04b201354cbf86fff60aadbab82e8fd33d92a4940670f",
          "blockNumber": "0x4",
          "blockTimestamp": "0x690ec666",
          "transactionHash": "0x29d1c22bff32540304a89a7861a1e0e9fd5e90cca4ef55b270a37aaa5bb9df66",
          "transactionIndex": "0x0",
          "logIndex": "0x0",
          "removed": false
        }
      ],
      "logsBloom": "0x00000000000000000002000000000000000000000000000000000000000000000000000000000000000000000000000000000000000000000000000000100000000000000000000000000008000000000000000000000000000000000000000000000840000000000000000000000000000800000000000000000010000000000000000000000000000000000000000000000000000000000000000200000000000000000000200000000000000000000000000000000000000000000000000000000042000000000000000000000000000000000000000000000000000000000000000000000000000000000000000001000000000000000000000000000000",
      "type": "0x2",
      "transactionHash": "0x29d1c22bff32540304a89a7861a1e0e9fd5e90cca4ef55b270a37aaa5bb9df66",
      "transactionIndex": "0x0",
      "blockHash": "0xfe2410f97fc2551226c04b201354cbf86fff60aadbab82e8fd33d92a4940670f",
      "blockNumber": "0x4",
      "gasUsed": "0x89d6",
      "effectiveGasPrice": "0x285386d4",
      "blobGasPrice": "0x1",
      "from": "0x70997970c51812dc3a010c7d01b50e0d17dc79c8",
      "to": "0x5fbdb2315678afecb367f032d93f642f64180aa3",
      "contractAddress": null
    },
    {
      "status": "0x1",
      "cumulativeGasUsed": "0x89d6",
      "logs": [
        {
          "address": "0x5fbdb2315678afecb367f032d93f642f64180aa3",
          "topics": [
            "0xddf252ad1be2c89b69c2b068fc378daa952ba7f163c4a11628f55a4df523b3ef",
            "0x0000000000000000000000003c44cdddb6a900fa2b585dd299e03d12fa4293bc",
            "0x00000000000000000000000070997970c51812dc3a010c7d01b50e0d17dc79c8"
          ],
          "data": "0x00000000000000000000000000000000000000000000006c6b935b8bbd400000",
          "blockHash": "0x81be9d6383a559adc9ec3b33a79200e414d69e9472825cfdd3cc39522cb14243",
          "blockNumber": "0x5",
          "blockTimestamp": "0x690ec666",
          "transactionHash": "0x1748a42d3b6438e6676d82e57048f84894671b761a9c70ca2cbbeffdbf028257",
          "transactionIndex": "0x0",
          "logIndex": "0x0",
          "removed": false
        }
      ],
      "logsBloom": "0x00000000000000000002000000000000000000000000000000000000000000000000000000000000000000000000000000000000000000000000000000100000000000000000000000000008000000000000000000000000000000000000000000000840000000000000000000000000000800000000000000000010000000000000000000000000000000000000000000000000000000000000000200000000000000000000200000000000000000000000000000000000000000000000000000000042000000000000000000000000000000000000000000000000000000000000000000000000000000000000000001000000000000000000000000000000",
      "type": "0x2",
      "transactionHash": "0x1748a42d3b6438e6676d82e57048f84894671b761a9c70ca2cbbeffdbf028257",
      "transactionIndex": "0x0",
      "blockHash": "0x81be9d6383a559adc9ec3b33a79200e414d69e9472825cfdd3cc39522cb14243",
      "blockNumber": "0x5",
      "gasUsed": "0x89d6",
      "effectiveGasPrice": "0x234c1f19",
      "blobGasPrice": "0x1",
      "from": "0x3c44cdddb6a900fa2b585dd299e03d12fa4293bc",
      "to": "0x5fbdb2315678afecb367f032d93f642f64180aa3",
      "contractAddress": null
    },
    {
      "status": "0x1",
      "cumulativeGasUsed": "0xcca2",
      "logs": [
        {
          "address": "0x5fbdb2315678afecb367f032d93f642f64180aa3",
          "topics": [
            "0xddf252ad1be2c89b69c2b068fc378daa952ba7f163c4a11628f55a4df523b3ef",
            "0x000000000000000000000000f39fd6e51aad88f6f4ce6ab8827279cfffb92266",
            "0x00000000000000000000000090f79bf6eb2c4f870365e785982e1f101e93b906"
          ],
          "data": "0x0000000000000000000000000000000000000000000001b1ae4d6e2ef5000000",
          "blockHash": "0x4131b960e3b3ccb8f4caa8d219f4ec9ea6a61d7cf794b1ceffeffe721f50d8b8",
          "blockNumber": "0x6",
          "blockTimestamp": "0x690ec666",
          "transactionHash": "0x39947b9326c5ce33c9146f7566cea768b3ca7af0461a67d192c8fcd1b0963a2b",
          "transactionIndex": "0x0",
          "logIndex": "0x0",
          "removed": false
        }
      ],
      "logsBloom": "0x00000000000000000000000000000000000000000000000000000000000000000000000000000000000000000000000000000000000000000000000000000000000000000000000000000008000000000000000000000000000000000000000000000040000000000000000100000000000000000000000000000010000000000000000000000000000000000000000000000000000000000400000200000000000000000000000000000000000000000000000000000000000000000000000000000042000000200000000000000000400000002000000000000000000000000000000000000000000010000000000000000000000000000000000000000000",
      "type": "0x2",
      "transactionHash": "0x39947b9326c5ce33c9146f7566cea768b3ca7af0461a67d192c8fcd1b0963a2b",
      "transactionIndex": "0x0",
      "blockHash": "0x4131b960e3b3ccb8f4caa8d219f4ec9ea6a61d7cf794b1ceffeffe721f50d8b8",
      "blockNumber": "0x6",
      "gasUsed": "0xcca2",
      "effectiveGasPrice": "0x1ee5436c",
      "blobGasPrice": "0x1",
      "from": "0xf39fd6e51aad88f6f4ce6ab8827279cfffb92266",
      "to": "0x5fbdb2315678afecb367f032d93f642f64180aa3",
      "contractAddress": null
    }
  ],
  "libraries": [],
  "pending": [],
  "returns": {},
  "timestamp": 1762575974414,
  "chain": 31337,
  "commit": "5efcfc2"
}